:020000040000FA
:10000000803102288731ED2F4E010F140800003097
:1000100040013A05C20000303B05C30080303C057A
:10002000C4007F303D05C500450844044304420434
:10003000031D1B281C2824280030BD000030BC00F4
:100040000030BB000030BA0000303E05C200003076
:100050003F05C30080304005C4007F304105C50026
:100060004508440443044204031D37283828402827
:100070000030C1000030C0000030BF000030BE00C2
:10008000BD1F432844285C280030C2000030C30054
:100090000030C4008030C5003A08C2023B08C33BB0
:1000A0003C08C43B3D08C53B4508BD004408BC00B6
:1000B0004308BB004208BA00C11F5F2860287828A7
:1000C0000030C2000030C3000030C4008030C500E2
:1000D0003E08C2023F08C33B4008C43B4108C53B41
:1000E0004508C1004408C0004308BF004208BE00E4
:1000F0008030BD068030C10641083D02031D8A28BC
:1001000040083C02031D8A283F083B02031D8A2841
:100110003E083A0203188D288E2890280310912853
:10012000031408004101BE00BA01BB014001590897
:100130004101D000400158084101CF00400157085B
:100140004101CE00400156084101CD005008400158
:10015000BD0041014F084001BC0041014E08400173
:10016000BB0041014D084001BA000030C100003021
:10017000C0000030BF000030BE0080310720803159
:100180000318C328C428DD2801304101BA0000301B
:10019000BB005008F3004F08F2004E08F1004D0874
:1001A000F0009B31AF23803173084101D000720809
:1001B000CF007108CE007008CD004101D301D401F9
:1001C000420148084101C000420147084101BF0007
:1001D0003A083B04031DED28EE28F32842014B1D8D
:1001E000F228F328122941013A083B04031DF9289B
:1001F000FA28FF282B30A0000030A10003292D3061
:10020000A0000030A10020084001DB005B08430192
:10021000A00001304101D3070030D43DFF30BF07BB
:10022000FF30C03D41015008F3004F08F2004E0876
:10023000F1004D08F0008831102080317003710406
:10024000031D23292429762940015A08BF3EDB00DB
:10025000FF3003180030DC0000305C021A30031954
:100260005B02031C34293629013037290030DD00B8
:10027000DE015D084101A20040015E084101A300CA
:100280002208230403194529462950295530F00036
:10029000A030F1005308A03E9D31932580315929AB
:1002A0005D30F000A030F1005308A03E9D31932551
:1002B0008031FD304101BF07FF30C03DA03040011B
:1002C000DB005B08A400410140084001A600410199
:1002D0003F084001A50041013E089131D121803104
:1002E00040012508D7002408D600EC2F4101500812
:1002F000F3004F08F2004E08F1004D08F00088317D
:100300001020803170087104031D87298829DA299B
:1003100040015A08BF3EDB00FF3003180030DC000C
:1003200000305C021A3003195B02031C98299A29D9
:1003300001309B290030DD00DE015D084101A40091
:1003400040015E084101A500240825040319A929DC
:10035000AA29B4295930F000A030F1005308A03E7A
:100360009D3193258031BD296130F000A030F1002E
:100370005308A03E9D3193258031FD304101BF07D8
:10038000FF30C03DA0304001DB005B08A40041010C
:1003900040084001A60041013F084001A50041017D
:1003A0003E089131D121803140012508D700240831
:1003B000D600EC2F3F304101D8008030D70000300C
:1003C000D6000030D500D101D2015008F3004F080B
:1003D000F2004E08F1004D08F0000030F700003048
:1003E000F6000030F5000030F400903181208031BB
:1003F0000318FB29FC29B12A2D2A41304001A30012
:100400002030A2000030A1000030A00041015808B7
:100410004001A700410157084001A60041015608CC
:100420004001A500410155084001A4008A31C722BE
:100430008031400123084101D800400122084101D8
:10044000D700400121084101D600400120084101A8
:10045000D5000130D1070030D23D410150084001A4
:10046000BD0041014F084001BC0041014E08400160
:10047000BB0041014D084001BA004130A3002030CB
:10048000A2000030A1000030A00041015808400146
:10049000A700410157084001A6004101560840014C
:1004A000A500410155084001A4008A31C7228031CE
:1004B00040012308C1002208C0002108BF00200815
:1004C000BE008031072080310318672A682AFD2981
:1004D0008A2A4130F3002030F2000030F100003071
:1004E000F00041015808F7005708F6005608F500DB
:1004F0005508F40096314C26803173084101D8002C
:100500007208D7007108D6007008D500FF30D107F7
:10051000FF30D23D410150084001BD0041014F086C
:100520004001BC0041014E084001BB0041014D08A3
:100530004001BA00410158084001C100410157087B
:100540004001C000410156084001BF00410155086B
:100550004001BE00803107208031031CB02AB12A3F
:10056000692A40015A08DB00DC015B08F6005C08E0
:10057000F7009E311C26803176084001DD005D08C1
:100580004101C20042084001DB005B084101C1009B
:1005900067304206031DCD2ACE2AF72A42014908B8
:1005A0004A04031DD42AD52AD92A0130C9000030B3
:1005B000CA004A08803A4001DB0080305B02031D1C
:1005C000E42A0130420149020318E72AE82AEE2A08
:1005D00006304101BC000030BD00FD2A42014A083E
:1005E0004101BD00420149084101BC00FD2A420110
:1005F000CA1BFB2AFC2AE82AEE2A67304206031DA2
:10060000022B032B3B2B5208803A4001DB007F304A
:100610005B02031D0E2BFC3041015102031C112B08
:10062000122B352B41013C08FF3E4001DB00FF301F
:1006300041013D3D4001DC005C08803ADD004101A4
:100640005208803A40015D02031D2A2B41015108E6
:1006500040015B02031C2D2B2E2B352B66304001F5
:10066000DB005B084101C1003B2B65304001DB0032
:100670005B084101C1003D08B3003C08B20067308F
:100680004206031D442B452B4F2B66304106031DAC
:100690004A2B4B2B532BD21F4E2B4F2B532B01305E
:1006A000B2070030B33D66304106031D582B592B6D
:1006B000712BD21F5C2B5D2B672B3F30D800803015
:1006C000D7000030D6000030D500D101D20167300C
:1006D000420603196C2B6D2B712B5108B20752087F
:1006E000B33DCB01CC015008C6004F08C5004E08F1
:1006F000C4004D08C3005808B7005708B600560894
:10070000B5005508B400322C41015808F3005708D1
:10071000F2005608F1005508F0004608F7004508B9
:10072000F6004408F5004308F40096314C26803169
:1007300073084001B0007208AF007108AE00700885
:10074000AD00953161258031400130084101CA007A
:1007500040012F084101C90040012E084101C80095
:1007600040012D084101C7004A08F3004908F20082
:100770004808F1004708F0009231EC2280317108FE
:100780004101B9007008B8004A084001A7004101C2
:1007900049084001A600410148084001A500410167
:1007A00047084001A400410158084001A30041014D
:1007B00057084001A200410156084001A100410133
:1007C00055084001A0008A31C7228031400123082A
:1007D000D1002208D0002108CF002008CE0041011E
:1007E00046084001D500410145084001D4004101BF
:1007F00044084001D300410143084001D2009D312B
:1008000052258031400151084101C6004001500885
:100810004101C50040014F084101C40040014E089C
:100820004101C3004130F3002030F2000030F100FC
:100830000030F0005808F7005708F6005608F50099
:100840005508F40096314C26803173084101D800D8
:100850007208D7007108D6007008D5000130CB07A8
:100860000030CC3D4C08803A4001DB0041013308A8
:10087000803A40015B02031D402C410132084B02CB
:10088000031C432C442C842B40304001A300A03097
:10089000A2000030A1000030A00041015808400132
:1008A000A700410157084001A60041015608400138
:1008B000A500410155084001A4008A31C7228031BA
:1008C000400123084101CA00400122084101C9003A
:1008D000400121084101C800400120084101C70032
:1008E00046084001BD00410145084001BC004101EE
:1008F00044084001BB00410143084001BA004101E6
:100900004A084001C100410149084001C0004101BD
:1009100048084001BF00410147084001BE00803146
:10092000072080310318952C962CA02C0030410113
:10093000CA000030C9000030C8000030C700C52C14
:1009400041014608F3004508F2004408F10043085D
:10095000F0004A08F7004908F6004808F500470883
:10096000F400903181208031031CB72CB82CC52CA9
:1009700041013818BC2CBD2CC52C0030CA000030F9
:10098000C9000030C8000030C70041014A084001DA
:10099000BD00410149084001BC0041014808400137
:1009A000BB00410147084001BA0041015008400125
:1009B000C10041014F084001C00041014E08400103
:1009C000BF0041014D084001BE0088318F208031B9
:1009D00040013D084101C60040013C084101C500FD
:1009E00040013B084101C40040013A084101C300F5
:1009F00046084001BD00410145084001BC004101DD
:100A000044084001BB00410143084001BA004130A5
:100A1000A3002030A2000030A1000030A00041015E
:100A200037084001A700410136084001A6004101F6
:100A300035084001A500410134084001A4008A3175
:100A4000C722803140012308C1002208C0002108CC
:100A5000BF002008BE00803107208031031C312DEB
:100A6000322D6D2D01304101D1070030D23D413092
:100A70004001A3002030A2000030A1000030A000FF
:100A8000410137084001A700410136084001A60096
:100A9000410135084001A500410134084001A4008E
:100AA0008A31C7228031400123084101B70040014B
:100AB00022084101B600400121084101B500400172
:100AC00020084101B40066304106031D682D692DE0
:100AD0006D2D0130B2070030B33D41013708D80019
:100AE0003608D7003508D6003408D50065304106F1
:100AF00003197B2D7C2D812D5208B1005108B000C7
:100B0000832DB001B101AE01AF01AC01AD01CB014C
:100B1000CC01B12E41015808F3005708F2005608E5
:100B2000F1005508F0004608F7004508F6004408B3
:100B3000F5004308F40096314C26803173084001DB
:100B4000B0007208AF007108AE007008AD009531BA
:100B500061258031400130084101CA0040012F0861
:100B60004101C90040012E084101C80040012D0883
:100B70004101C7004A08F3004908F2004808F100A3
:100B80004708F0009231EC22803171084101B90030
:100B90007008B80042014B1ACE2DCF2DE52D410132
:100BA00038083904031DD52DD62DE52D67304206B2
:100BB000031DDB2DDC2DE52DB11FDF2DE02DE52DF7
:100BC0000130AC070030AD3D3F2E41012E082F040F
:100BD000031DEB2DEC2D232EB11FEF2DF02D232E19
:100BE0002E304001DB0041015308A03E8600013059
:100BF000870040015B08810001304101D3070030CC
:100C0000D43DFF30BF07FF30C03D0130AE000030A3
:100C1000AF00232E30304001DB0041015308A03EDD
:100C200086000130870040015B08810001304101EE
:100C3000D3070030D43DFF30BF07FF30C03DFF3049
:100C4000AC07FF30AD3D2C082D04031D282E292EA6
:100C50000A2E3808303E4001DB0041015308A03E17
:100C600086000130870040015B08810001304101AE
:100C7000D3070030D43DFF30BF07FF30C03D4A08E6
:100C80004001A700410149084001A6004101480870
:100C90004001A500410147084001A4004101580856
:100CA0004001A300410157084001A200410156083C
:100CB0004001A100410155084001A0008A31C7222E
:100CC000803140012308D1002208D0002108CF0044
:100CD0002008CE00410146084001D50041014508E9
:100CE0004001D400410144084001D30041014308C0
:100CF0004001D2009D31522580314001510841010F
:100D0000C600400150084101C50040014F084101A3
:100D1000C40040014E084101C3004130F3002030BF
:100D2000F2000030F1000030F0005808F7005708DA
:100D3000F6005608F5005508F40096314C2680312F
:100D400073084101D8007208D7007108D6007008F6
:100D5000D500FF30B007FF30B13D0130CB07003088
:100D6000CC3D4C08803A4001DB0041013308803A19
:100D700040015B02031DBF2E410132084B020318E4
:100D8000C22EC32ED32E41015408803A4001DB000D
:100D900080305B02031DCF2E4B3041015302031CF8
:100DA000D22ED32E8A2D41012E082F04031DD92EB9
:100DB000DA2EF02E42014B1EDE2EDF2EF02E2E30CC
:100DC0004001DB0041015308A03E8600013087004E
:100DD00040015B08810001304101D3070030D43D60
:100DE00041015308A03E8600013087008101653033
:100DF0004106031DFC2EFD2ED52F4F30CB000030B9
:100E0000CC004B08A03E8600013087008101BA016A
:100E1000BB01D21F0C2F0D2F162F0130BA0000304E
:100E2000BB00D109D209D10A0319D20A0230BC0091
:100E30000030BD00512FFF304101CB07FF30CC3DCA
:100E40000A30F0000030F1005208F3005108F200BF
:100E50009031CF2080317008303E4001DB004101ED
:100E60004B08A03E86000130870040015B088100EE
:100E70000A30F0000030F10041015208F30051083F
:100E8000F20092312A22803171084101D2007008AB
:100E9000D100FF30BC07FF30BD3DFF30BF07FF3042
:100EA000C03D51085204031D562F572F1B2F3D08DC
:100EB000803A4001DB0080305B02031D622F01306D
:100EC00041013C020318652F662F1B2FFF304101A3
:100ED000CB07FF30CC3D3A083B04031D702F712F28
:100EE000762F2B30A6000030A7007A2F2D30A600D9
:100EF0000030A70026084001DB0041014B08A03E5E
:100F000086000130870040015B088100FF3041010D
:100F1000BF07FF30C03DFF30CB07FF30CC3D400165
:100F20005A08BF3EDB00FF3003180030DC00003001
:100F30005C021A3003195B02031C9F2FA12F0130A2
:100F4000A22F0030DD00DE015D084101AA00400152
:100F50005E084101AB002A082B04031DB02FB12FFE
:100F6000B62F6530A8000030A900BA2F4530A80080
:100F70000030A90028084001DB0041014B08A03ED9
:100F800086000130870040015B088100FF3041018D
:100F9000BF07FF30C03D4B08A03EF0000130F1001C
:100FA0005308A03E9D3193258031A0304001DB00E5
:100FB0005B08A400410140084001A60041013F0830
:100FC0004001A50041013E089131D121803140010D
:100FD0002508D7002408D6000800203084000130FE
:100FE00085002E309B316A238731A0308400013088
:100FF000850050309B316A23873140019231892A24
:101000009B319B2388319B31882388319F314F2727
:1010100088319B31912388319D31B4258831080076
:10102000420144084001A500420143084001A400D8
:10103000420142084001A300420141084001A200D0
:101040007308A5007208A4007108A3007008A2002C
:101050002208F4002308F5002408F6002508F7000C
:101060001730F736F60CF50CF40C890B3128FF30ED
:101070007405A00000307505A10020082104031D9F
:101080004228432864282208F4002308F500240895
:10109000F6002508F7000130F435F50DF60DF70DD3
:1010A000890B4C287708760475047404031D5928AD
:1010B0005A285F280230F0000030F1008E280330FB
:1010C000F0000030F1008E28200A2104031D692859
:1010D0006A288A282208F4002308F5002408F6006C
:1010E0002508F7000930F435F50DF60DF70D890BDD
:1010F00073287708760475047404031980288228FD
:10110000013083280030F800F9017808F0007908F0
:10111000F1008E280430F0000030F100080040019A
:101120003D088039C2004208CA003D35C20042086D
:10113000CC00BC1F9C289D289E284C144C080319E9
:10114000A228A328B3284C0A031DA728A828B02842
:101150000030BD000030BC000030BB000030BA00E1
:10116000BC17BD01BB280030BD000030BC00003002
:10117000BB000030BA0041088039C2004208CB00F1
:101180004B084A060319C528C628C7284A174135FF
:10119000C2004208CB00C01FCE28CF28D0284B1455
:1011A0004B080319D428D528E5284B0A031DD92854
:1011B000DA28E2280030C1000030C0000030BF0053
:1011C0000030BE00C017C101ED280030C100003062
:1011D000C0000030BF000030BE004C084B020318B6
:1011E000F228F32837294A1FF628F728FB288030F1
:1011F000C2004208CA064C08C2004208CD004B0893
:10120000C2004208CC004D08C2004208CB003A0898
:10121000C2004208CD003E08C2004208BA004D0894
:10122000C2004208BE003B08C2004208CD003F0891
:10123000C2004208BB004D08C2004208BF003C0883
:10124000C2004208CD004008C2004208BC004D0860
:10125000C2004208C0003D08C2004208CD0041085B
:10126000C2004208BD004D08C2004208C100CD01C5
:101270004B08C200C3014308C5004C084202C40029
:10128000031CC5034508803AC60080304602031D92
:101290004B291A304402031C4E294F29872940014B
:1012A0003D083C043B043A04031D572959290130E9
:1012B0005A290030C2004208CD000030BD00003085
:1012C000BC000030BB000030BA004B08C20042082E
:1012D000CC008E294D1C6D296E2974294D3601389C
:1012E000C2004208CD0076290310CD0C3A1C7929A2
:1012F0007A297B29CD170130C200BD37BC0CBB0C4D
:10130000BA0CC20B7D290130C2004208CC07400153
:101310004B084C02031C8D298E296A294A1B9129EE
:101320009229CA294C08031D96299729A029003023
:10133000BD000030BC000030BB000030BA00C62A3F
:101340003E08BA073F08BB3D4008BC3D4108BD3DD3
:101350003D1CAB29AC29562A4D1CAF29B029B62912
:101360004D360138C2004208CD00B8290310CD0C1B
:101370003A1CBB29BC29BD29CD170130C200BD379D
:10138000BC0CBB0CBA0CC20BBF290130C200420816
:10139000CC07562A3D08803AC2004108803A4202F2
:1013A000031DDC2940083C02031DDC293F083B02E9
:1013B000031DDC293E083A020318DF29E029182A18
:1013C000FF30C200FF30C300FF30C400FF30C50053
:1013D0003A083E02C6003B083F3BC7003C08403B82
:1013E000C8003D08413BC9004608C2074708C33D45
:1013F0004808C43D4908C53D4508BD004408BC0037
:101400004308BB004208BA008030C2004208CA0646
:10141000CD09CD0A4D08031D0E2A0F2A202A0130BE
:10142000BA070030BB3D0030BC3D0030BD3D202A36
:101430003E08BA023F08BB3B4008BC3B4108BD3BED
:101440003D083C043B043A04031D272A282A522A5B
:101450004D08031D2C2A2D2A522A0030BD000030D1
:10146000BC000030BB000030BA00C62A0130BA35DB
:10147000BB0DBC0DBD0D890B372ACD1F402A412A5B
:10148000422A3A144D1C452A462A492A0314CD0DF6
:101490004B2A0310CD0D4C0803194F2A502A522A0B
:1014A0000130CC02BC1F552A562A362ACB01CD1F4B
:1014B0005A2A5B2A692A4D087F390319602A612A52
:1014C000642ACB01CB0A692A3A1C672A682A692A4E
:1014D000612A4B0803196D2A6E2A9B2A0130BA072C
:1014E0000030BB3D0030BC3D0030BD3D3D1C792A85
:1014F0007A2A9B2A3A08C2003B08C3003C08C40071
:101500003D08C5000130C600C537C40CC30CC20C71
:10151000C60B842A4508BD004408BC004308BB0034
:101520004208BA004C0A0319962A972A9B2A0130CE
:10153000C2004208CC074C0A03199F2AA02AA52AF8
:101540004C08031DA42AA52AB32A0030BD00003090
:10155000BC000030BB000030BA004C08031DB12AAB
:10156000B22AB32ACA014C1CB62AB72AB92ABC1718
:10157000BD2A7F30C2004208BC054C36C20042087A
:10158000BD00CA1FC42AC52AC62ABD1708004001CB
:1015900023088039A8002808AD002335A8002808B2
:1015A000B300A21FD42AD52AD62A3314330803192C
:1015B000DA2ADB2AEA2A330A031DDF2AE02AE82A8C
:1015C0000030A3000030A2000030A1000030A000D5
:1015D000A217F22A0030A3000030A2000030A100C0
:1015E0000030A00027088039A8002808AD0627355C
:1015F000A8002808B200A61FFE2AFF2A002B3214DA
:1016000032080319042B052B142B320A031D092B56
:101610000A2B122B0030A7000030A6000030A500D6
:101620000030A400A6171C2B0030A7000030A60035
:101630000030A5000030A40032080319202B212B14
:10164000262B3308031D252B262B2F2B0030A30020
:101650000030A2000030A1000030A0001D2D2008A5
:10166000A8002808F00026089D31D6258A31710887
:101670004001B9007008B8003808A800A901AA0103
:10168000AB012B08B1002A08B0002908AF002808D8
:10169000AE003908A800A901AA01AB012B08B700C8
:1016A0002A08B6002908B5002808B4002108A800B7
:1016B0002808F00025089D31D6258A31710840019F
:1016C000B9007008B8003808A800A901AA01AB0148
:1016D0002808AE072908AF3D2A08B03D2B08B13DC8
:1016E0003908A800A901AA01AB012808B4072908F4
:1016F000B53D2A08B63D2B08B73D2208A8002808AA
:10170000F00024089D31D6258A3171084001B900C6
:101710007008B8003808A800A901AA01AB01280880
:10172000AE072908AF3D2A08B03D2B08B13D390866
:10173000A800A901AA01AB012808B4072908B53DF2
:101740002A08B63D2B08B73D0830AE35AF0DB00DB9
:10175000B10D890BA52B2108A8002808F00024084A
:101760009D31D6258A3171084001B9007008B80052
:101770003808AE073908AF3D0030B03DB13D200814
:10178000A8002808F00025089D31D6258A31710867
:101790004001B9007008B8003808AE073908AF3DFD
:1017A0000030B03DB13D0830AE35AF0DB00DB10DDC
:1017B000890BD42B2008A8002808F00024089D31AC
:1017C000D6258A3171084001B9007008B800380880
:1017D000AE073908AF3D0030B03DB13D2108A8004B
:1017E0002808F00026089D31D6258A31710840016D
:1017F000B9007008B8003808B4073908B53D0030A2
:10180000B63DB73D2208A8002808F00025089D3104
:10181000D6258A3171084001B9007008B80038082F
:10182000B4073908B53D0030B63DB73D2208A800E1
:101830002808F00026089D31D6258A31710840011C
:10184000B9007008B8003808A8003908A900AA0132
:10185000AB010830A835A90DAA0DAB0D890B2A2CB8
:101860002808B4072908B53D2A08B63D2B08B73D1E
:101870002E08A8002F08A9003008AA003108AB00E4
:101880001830AB36AA0CA90CA80C890B412C2808DF
:10189000B4072908B53D2A08B63D2B08B73D0830E6
:1018A000AE35AF0DB00DB10D890B502C330832079A
:1018B000A800A901A90D2808823EB800FF30293DE3
:1018C000B900792C0130B435B50DB60DB70D890BC3
:1018D000632CB11F6C2C6D2C6E2C34140130AE3582
:1018E000AF0DB00DB10D890B6F2CFF30B807FF3075
:1018F000B93DB61F7C2C7D2C622CB201B11F812C0E
:10190000822C9E2CFF302E05A800FF302F05A90049
:10191000FF303005AA007F303105AB002B082A04C8
:10192000290428040319952C962C992CB201B20A8B
:101930009E2C341C9C2C9D2C9E2C962C320803191A
:10194000A22CA32CCB2C0130B4070030B53D0030C5
:10195000B63D0030B73D371CAE2CAF2CCB2C340835
:10196000A8003508A9003608AA003708AB000130E6
:10197000AC00AB37AA0CA90CA80CAC0BB92C2B08EB
:10198000B7002A08B6002908B5002808B4000130BD
:10199000B8070030B93D3908803AA80080302802E5
:1019A000031DD42CFF303802031CD72CD82CE22C7A
:1019B0007F304001B7008030B6000030B500003005
:1019C000B400112D40013908803AA8008030280267
:1019D000031DEC2C013038020318EF2CF02CFB2CEB
:1019E00000304001B7000030B6000030B5000030D4
:1019F000B400AD01112D40013808A8002808B3003B
:101A0000FF30B405FF30B5057F30B6050030B705AF
:101A1000331C0B2D0C2D0D2DB6173336A8002808BE
:101A2000B7002D08A8002808B7043708A300360817
:101A3000A2003508A1003408A00008004101E70019
:101A400040015F0886008701403FE100413FE2001E
:101A500061088400620885001200253A031D312DBB
:101A6000322DDA2F5F08860087010130810741316E
:101A70000318810A4201C701C801CB01CC01FF3024
:101A8000C900FF30CA0040015F0886008701403F5F
:101A9000E100413FE2006108840062088500120015
:101AA0002A3A031D542D552D762D5F088600870197
:101AB0000130810741310318810A60088600013036
:101AC000870001088400850102308107003F420140
:101AD000C700013FC800C81F6E2D6F2DBC2D4B14D1
:101AE000C709C809C70A0319C80ABC2D5F088600C0
:101AF0008701403FF600413FF7009431B2248D3119
:101B000077084201C8007608C7008F2D40015F08A2
:101B1000860087010130810741310318810A4001A5
:101B20005F0886008701403FE100413FE200610815
:101B30008400620885000008D03EE300FF300318EF
:101B40000030E400003064020A3003196302031C11
:101B5000AA2DAC2D0130AD2D0030E500E601650861
:101B60004101D900400166084101DA0059085A04D0
:101B7000031DBB2DBC2D862D40015F08860087010B
:101B8000403FE100413FE2006108840062088500B7
:101B900012002E3A031DCD2DCE2D482E4201C90133
:101BA000CA0140015F088600870101308107413189
:101BB0000318810A5F0886008701403FE100413F2A
:101BC000E200610884006208850012002A3A031DC1
:101BD000EA2DEB2D022E5F08860087010130810778
:101BE00041310318810A600886000130870001082E
:101BF0008400850102308107003F4201C900013F96
:101C0000CA00482E5F0886008701403FF600413F2A
:101C1000F7009431B2248D3177084201CA0076086A
:101C2000C9001B2E40015F08860087010130810733
:101C300041310318810A40015F0886008701403F57
:101C4000E100413FE200610884006208850000086D
:101C5000D03EE300FF3003180030E400003064029F
:101C60000A3003196302031C362E382E0130392E38
:101C70000030E500E60165084101DB00400166082F
:101C80004101DC005B085C04031D472E482E122E28
:101C900040015F0886008701403FE100413FE200CC
:101CA00061088400620885000008E300E40163081D
:101CB000F6006408F7009E311C268D31760840013D
:101CC000E50065084101E30063080319682E692EE9
:101CD000AC2E40015F0886008701403FE100413F94
:101CE000E20001306107840062080318620A85007F
:101CF0000008E300E4016308F6006408F7009E3181
:101D00001C268D3176084001E50065084101E4009C
:101D1000640803198C2E8D2EAC2E40015F088600BE
:101D20008701403FE100413FE2000230610784004B
:101D300062080318620A85000008E300E4016308F2
:101D4000F6006408F7009E311C268D3176084001AC
:101D5000E50065084101E50066306306031DB12E0C
:101D6000B22EFE2E40015F0886008701403FE10051
:101D7000413FE20061088400620885000008E3003A
:101D800063084101E60040015F08860087010130D9
:101D9000810741310318810A6008860001308700FD
:101DA00001088400850104308107003F4101DF0004
:101DB000013FE000023FE100033FE2006208400112
:101DC000D900410161084001D8004101600840018B
:101DD000D70041015F084001D6004101660840017B
:101DE000E1006108DA0041016708803192208D31FD
:101DF00040015708E0005608DF00FF2F6530F00073
:101E0000A030F1000230F2000030F300E3309131F5
:101E100079218D3170087104031D0F2F102FA22F0F
:101E200040015F0886008701403FE100413FE2003A
:101E300001306107840062080318620A8500000807
:101E4000E30063084101E60040015F088600870166
:101E5000403FE100413FE2006108840062088500E4
:101E60000008BF3EE300FF3003180030E4000030FC
:101E700064021A3003196302031C3F2F412F013003
:101E8000422F0030E500E60165084101DD00400118
:101E900066084101DE005D085E040319502F512FD2
:101EA000652F40016008860001308700010884002A
:101EB000850104308107003F4101DF00013FE00060
:101EC000023FE100033FE200782F400160088600F6
:101ED0000130870001088400850104308107003F3C
:101EE0004101DF00013FE000023FE100033FE2006B
:101EF00040015F08860087010230810741310318E5
:101F0000810A410162084001D90041016108400194
:101F1000D800410160084001D70041015F0840013D
:101F2000D600410166084001E1006108DA00410184
:101F30006708803192208D3140015708E000560833
:101F4000DF00FF2F40015F0886008701403FE1006E
:101F5000413FE20061088400620885001200253AD2
:101F6000031DB32FB42FCF2F5F08860087010130E8
:101F7000810741310318810A2530F2000030F30057
:101F8000410167084001E1006108F4009F31C12769
:101F90008D3101304001DF000030E000FF2F5F088D
:101FA000860087010130810741310318810ADF0172
:101FB000E001FF2F5F0886008701403FE100413FBD
:101FC000E20061088400620885000008E300E40183
:101FD0006308F2006408F300410167084001E5006E
:101FE0006508F4009F31C1278D3140015F088600EC
:101FF00087010130810741310318810AC92F080088
:102000004001AA002608A9002908AD002808AC0054
:102010002708AB0040012A089F3187279031003AFA
:102020000319132814280A289D30F5001C30F600E7
:102030002B304001A9002908F7009B31BA239031C9
:102040000130F0000030F10025309B31EE2390315B
:102050000030F500F600F7019B31E12390319B3110
:10206000412390319D3117259031013A03193928C8
:102070003A28322808009B3104239031FA004201AB
:102080003708860087017A0881000130FA007A0853
:10209000B7070130B8020030B93B380839040319DA
:1020A0005228532858289B310B2390310530802823
:1020B000BC1562289B313723903180289B31322315
:1020C000903180282C08FA007A08F90021088A004B
:1020D00020080A009031FB00FC017C08003A03193B
:1020E00072285E287B08013A03195E28033A031917
:1020F0005A28013A03195A28073A03195E285E281C
:10210000080000307005F80000307105F9008030DB
:102110007205FA007F307305FB007B087A047904AE
:102120007804031D942895289D280030F300003082
:10213000F2000030F1000030F00000307405F800CB
:1021400000307505F90080307605FA007F3077059C
:10215000FB007B087A0479047804031DB028B128B9
:10216000B9280030F7000030F6000030F5000030EC
:10217000F40077087306031DC72876087206031D4E
:10218000C72875087106031DC7287408700603194F
:10219000CA28CB28CD280310CE2803140800F60146
:1021A000F31FD328D428DB28F209F309F20A031914
:1021B000F30AF601F60AF11FDE28DF28E428F00909
:1021C000F109F00A0319F10A700871040319E928EA
:1021D000EA281329F501F50AF6280130F035F10D4A
:1021E000890BEE280130F4007408F507F11FF92877
:1021F000FA28ED2871087302031D00297008720285
:10220000031C0329042908297008F2027108F33B12
:102210000130F136F00C890B09290130F502031D5C
:1022200012291329FA2876080319172918291D29B4
:10223000F209F309F20A0319F30A7308F1007208AC
:10224000F00008009B3146239131003A03192929F7
:102250002A295B2937299B311923913178299B3110
:102260001E23913178299B3128239131782942010D
:102270002F08FA007A08F9000630203E8600013067
:102280008700413F8A00403F0A009131FB00FC017A
:102290007C08003A03194D2933297B08013A0319B8
:1022A0003329033A03192B29013A03192F29073A35
:1022B00003193329332942013C101730203E860090
:1022C00001308700403F84008501810A00089B316E
:1022D0000F23913101304201B8020030B93B380878
:1022E0003904031D742975297729063078290330AC
:1022F0000800F5007508F4007408F8007108F7008C
:102300007008F6000130F2020030F33B720A031D40
:102310008D29730A031D8D298E299D29F001F10154
:10232000D0290130F4007408F8070130F6070030B6
:10233000F73D0130F2020030F33B78088600870158
:1023400001080319A429A529C32976088400770860
:10235000850012000319AD29AE29C3297208730440
:102360000319B329B429C3297608840077088500A6
:102370000008F40078088600870101087406031934
:10238000C229C3299129780886008701760884002C
:102390007708850000080102F000F101031CF10339
:1023A00008004001AC0042014B1CD729D829E12983
:1023B00040012C08A7002708FA0024089E31412676
:1023C00091314001A61BE529E629EB292608AB003F
:1023D0002508AA00ED29AA01AB01A801A901012A3B
:1023E0002030F2000030F30040012C08A70027083D
:1023F000F4009F31C127913101304001A80700301E
:10240000A93D2908803AA7002B08803A2702031D1E
:102410000B2A2A082802031C0E2A0F2AF02942013F
:102420004B18132A142A1D2A40012C08A70027083C
:10243000FA0024089E3141269131400124089C3144
:10244000FD24913140012A087007A4002B08713D3A
:10245000A5000800F601F11F2E2A2F2A362AF009BE
:10246000F109F00A0319F10AF601F60AF31F392AF5
:102470003A2A432AF209F309F20A0319F30A01304E
:10248000F4007408F606F701F801700871040319E6
:102490004A2A4B2A7A2AF501F50A572A0130F035E3
:1024A000F10D890B4F2A0130F4007408F507F11F74
:1024B0005A2A5B2A4E2A0130F735F80D890B5C2A1F
:1024C00071087302031D662A70087202031C692AD0
:1024D0006A2A6F2A7008F2027108F33B7714013000
:1024E000F136F00C890B702A0130F502031D792AB0
:1024F0007A2A5B2A760803197E2A7F2A842AF7091A
:10250000F809F70A0319F80A7808F1007708F000CB
:10251000080088310020923155304101EE006E08EC
:102520004001CE0059304101EF006F084001CF005B
:102530005130933160239231420159035A04031DF3
:10254000A22AA32AD42A45304101E800A030E9009C
:10255000420154084101ED00420153084101EC00E1
:10256000420152084101EB00420151084101EA00D9
:102570009C318624923135304101E800A030E900D9
:10258000420158084101ED00420157084101EC00A9
:10259000420156084101EB00420155084101EA00A1
:1025A0009C3186249231DC2A20304101E800A030A1
:1025B000E9009C318624923102304101EF00453020
:1025C000EE00A930890BE22AEE0BE22AEF0BE22A99
:1025D00000328C2A803102280310720D730DF40032
:1025E0007408FA007A08031DF62AF72A002B003037
:1025F000F3000030F2000030F1000030F0005F2BFB
:102600007008F4007108F5007208F6007308F7000E
:102610001F30F736F60CF50CF40C890B092B7408F7
:10262000F8007808F900F217FF30F005FF30F105E7
:10263000FF30F2050030F3059630FA02FA1F212B25
:10264000222B3A2B7A08803A973E0318282B292B05
:102650002A2BF72A0130F336F20CF10CF00C890B1F
:102660002B2B0130F4007408FA07031D382B392B8B
:102670002A2B4F2B20307A02031C3F2B402B4A2B56
:10268000F72A0130F035F10DF20DF30D890B422BD5
:102690000130FA027A08031D4E2B4F2B412B79088B
:1026A0000319532B542B5F2BF009F109F209F3099D
:1026B000F00A0319F10A0319F20A0319F30A0800D0
:1026C0004001D9000C30D0005008A5005230D10094
:1026D0005108A6000730A7000030A80070309031E4
:1026E000002093310D30400152020318782B792BD2
:1026F0007F2B0D305302031C7E2B7F2BFE2B4F08AC
:102700008600013087000130C03F0030C13F4330B8
:10271000BD00C830BC000030BB000030BA00403003
:10272000A300DF30A2009430A100AE30A000530817
:10273000F33EF000FF3003180030F100F201F11B0E
:10274000F2037208F30001309431062493317308C8
:102750004001A7007208A6007108A5007008A40037
:102760008A31C722933140012308C1002208C000EA
:102770002108BF002008BE0088318F20933140011E
:1027800059088600013087003A08C03F3B08C13F26
:102790003C08C23F3D08C33F4030A3008B30A2003D
:1027A000BC30A100ED30A0005208F33EF000FF3035
:1027B00003180030F100F201F11BF2037208F3007C
:1027C000013094310624933173084001A700720848
:1027D000A6007108A5007008A4008A31C7229331B1
:1027E00040014E088600013087002008C03F2108C4
:1027F000C13F2208C23F2308C33F052C4F08860073
:10280000013087000030C03FC13F0800F800780861
:1028100003190B2C0C2C202CF31F0F2C102C202C0C
:102820007009FA007109FB007209FC007309FD00D0
:10283000FA0A0319FB0A0319FC0A0319FD0A282CDA
:102840007308FD007208FC007108FB007008FA00B4
:102850007308720471047004031D2F2C302C392C62
:102860000030F3000030F2000030F1000030F000E2
:10287000B12C9630F4007408F900492C0130F400B2
:102880007408F9070130FD36FC0CFB0CFA0C890BBF
:10289000432CFE307D05031D4E2C4F2C3E2C632C0B
:1028A0000130F4007408F9070130FA070030FB3DED
:1028B0000030FC3D0030FD3D0130FD36FC0CFB0CD2
:1028C000FA0C890B5D2CFF307D05031D682C692CEB
:1028D000502C732C0130F9020130FA35FB0DFC0D40
:1028E000FD0D890B6D2CFC1B762C772C7D2C02307A
:1028F000790203187C2C7D2C6A2C7918802C812C71
:10290000892CFF30FA05FF30FB057F30FC05FF30D6
:10291000FD050310F90C7908F400F501F601F70143
:102920001830F435F50DF60DF70D890B912C740860
:10293000FA047508FB047608FC047708FD0478089F
:102940000319A32CA42CA92CF31FA72CA82CA92C69
:10295000FD177D08F3007C08F2007B08F1007A087F
:10296000F00008004001A701A801A001A101BC2CB2
:102970000130F6070030F73DA601A60A760884006C
:10298000770885001200203A0319C72CC82CDD2CCB
:1029900076088400770885000008F73EF800FF30CD
:1029A00003180030F900003079020530031978026D
:1029B000031CDB2CDC2CDD2CA6012608F800F90119
:1029C0007808A2007908A30022082304031DE92C3B
:1029D000EA2CB82CF42C0130A0000030A10001300A
:1029E000F6070030F73D282D76088400770885002B
:1029F0000008F800F9017908003A0319002D282D84
:102A000078082B3A0319EF2C063A0319EB2C282DE2
:102A100076088400770885000008F8002808F1008F
:102A20002708F0000A30F2000030F3009D31332512
:102A300094317108FA0078087002F900031CFA0357
:102A40007908303E4001A70000307A3DA800EF2C05
:102A500076088400770885000008D03EF800FF3033
:102A600003180030F900003079020A3003197802A7
:102A7000031C3B2D3D2D01303E2D0030FA00FB01A3
:102A80007A08A4007B08A50024082504031D492D0D
:102A90004A2D082D20082104031D4F2D502D5C2D9B
:102AA0002709F8002809F900F80A0319F90A780833
:102AB000F6007908F700602D2808F7002708F600CF
:102AC0000800420140084001C00042013F084001A7
:102AD000BF0042013E084001BE0042013D084001E6
:102AE000BD003008C0002F08BF002E08BE002D0812
:102AF000BD003D08B1003E08B2003F08B3004008E9
:102B0000B4001730B436B30CB20CB10C890B822D63
:102B1000FF303105B50000303205B6003508813E82
:102B2000BB00FF30363DBC003C08803AB10080302D
:102B30003102031D9D2D17303B02031CA02DA12D3A
:102B4000A22D4B2E4001BC1BA62DA72D042EFF301D
:102B5000B100FF30B2007F30B3000030B4003B0A58
:102B6000B52DB437B30CB20CB10C890BB12D3408B0
:102B7000BA003308B9003208B8003108B7003D0880
:102B80003705B1003E083805B2003F083905B300EB
:102B900040083A05B4003408330432043104031DFC
:102BA000D22DD32DD42DA12D3D08B1003E08B20069
:102BB0003F08B3004008B4001F30B436B30CB20C69
:102BC000B10C890BDD2D34083304320431040319B0
:102BD000EA2DEB2DF32D3708BD073808BE3D390827
:102BE000BF3D3A08C03D3709B1003809B200390984
:102BF000B3003A09B4003108BD053208BE053308F8
:102C0000BF053408C005432E3D08B1003E08B200A0
:102C10003F08B3004008B4001F30B436B30CB20C08
:102C2000B10C890B0D2E3408330432043104031D1A
:102C30001A2E1B2E242E0030C0000030BF000030A2
:102C4000BE000030BD00432E3D08B1003E08B2007A
:102C50003F08B3004008B4000130B135B20DB30DE8
:102C6000B40D890B2D2E34083304320431040319BA
:102C70003A2E3B2E432EBF30C0008030BF000030C4
:102C8000BE000030BD004008B0003F08AF003E0865
:102C9000AE003D08AD00080077088039F8007808DC
:102CA0004001A4007735F8007808AB00F61F592ED4
:102CB0005A2E5B2E2B142B0803195F2E602E702EBC
:102CC0002B0A031D642E652E6D2E0030F700003098
:102CD000F6000030F5000030F400F617F701782E0A
:102CE0000030F7000030F6000030F5000030F4004E
:102CF00073088039F8007808A4067335F80078085E
:102D0000AC00F21F842E852E862E2C142C0803195D
:102D10008A2E8B2E9B2E2C0A031D8F2E902E982EE2
:102D20000030F3000030F2000030F1000030F0001D
:102D3000F217F301A32E0030F3000030F200003050
:102D4000F1000030F0007308720471047004031D78
:102D5000AA2EAB2EC42E0030F7000030F600003053
:102D6000F5000030F4008030F6047F30F7042408CA
:102D7000F8007808F7047708F3007608F200750881
:102D8000F1007408F000FF2F2B08031DC82EC92E78
:102D9000D22E0030F3000030F2000030F10000309D
:102DA000F000FF2F2B08F800F9017908FB002C0830
:102DB0007802FA00031CFB037A087F3EA50000306E
:102DC0007B3DA6007708A3007608A2007508A10045
:102DD0007408A0000030F7000030F6000030F50065
:102DE0000030F4000030AA000030A9000030A80034
:102DF0000030A700AC013A2F2C080319002F012F37
:102E00001B2F0130A035A10DA20DA30D890B022FA0
:102E10000130F435F50DF60DF70D890B092FAA1FBA
:102E2000122F132F142F74140130A735A80DA90DDC
:102E3000AA0D890B152F73082302031D292F720871
:102E40002202031D292F71082102031D292F70085A
:102E50002002031C2C2F2D2F362F2A177008A002BA
:102E60007108A13B7208A23B7308A33B0130F80034
:102E70007808AC071A302C02031C3F2F402FFC2E81
:102E800023082204210420040319472F482F612F0F
:102E90002714612F0130F435F50DF60DF70D890B70
:102EA0004B2FAA1F542F552F562F74140130A735BE
:102EB000A80DA90DAA0D890B572FFF30A507FF30CC
:102EC000A63DF61F642F652F4A2FAC01AA1F692F5C
:102ED0006A2F862FFF302705F800FF302805F900FC
:102EE000FF302905FA007F302A05FB007B087A04B1
:102EF0007904780403197D2F7E2F812FAC01AC0A51
:102F0000862F741C842F852F862F7E2F2C08031963
:102F10008A2F8B2FB32F0130F4070030F53D00309E
:102F2000F63D0030F73D771C962F972FB32F74088E
:102F3000F8007508F9007608FA007708FB00013000
:102F4000FC00FB37FA0CF90CF80CFC0BA12F7B08EA
:102F5000F7007A08F6007908F5007808F4000130E7
:102F6000A5070030A63D2608803AF8008030780298
:102F7000031DBC2FFF302502031CBF2FC02FCD2FF8
:102F8000FF304001A5000030A6000030F7000030FF
:102F9000F6000030F5000030F40040012608803AC9
:102FA000F80080307802031DD72F01302502031866
:102FB000DA2FDB2FE72F4001A501A6010030F70033
:102FC0000030F6000030F5000030F400A4014001AC
:102FD0002508F8007808AB002B1CEF2FF02FF22FFC
:102FE000F617F62F7F30F8007808F6052B36F80034
:102FF0007808F7002408F8007808F704BB2E0800CA
:1035D60001300800053008004E010F1008004301B5
:1035E600901208004E01191008004301111408003A
:1035F6004301911408004301111508004301911578
:10360600080043010C080800430191161116080032
:103616004301911211160800F000700843018C0056
:1036260008004201BC10BB010E3008009A31FB2293
:103636009B31013008009A31FB229B310230080091
:103646009A31FB229B31013008009A31FE229B31D0
:10365600003008009B310B239B31053008009B315D
:1036660007239B310A3008009B3107239B31093021
:1036760008004201BC10BB010E30080000309D312D
:10368600F9259B3108004301110E890C890C01397B
:1036960008004E010F1C502B512B4C2B08007108B3
:1036A6004201DC007008DB00080071084201E000FE
:1036B6007008DF00080071084201DE007008DD00B6
:1036C6000800F10071089B31A5239B3108006400B6
:1036D60080010131890B6B2B003442013C109B3178
:1036E60001239B310430080042013C1436359B31DE
:1036F6000F239B310330080042013C140314360D9E
:103706009B310F239B310530080043018F010830A0
:103716009000910103308D00901208006230510133
:103726008D008F01910102309300900192010800F3
:103736004F0196019701980199019A019B019C01FD
:103746009D010800F0004E010F1FAA2BAB2BA62BE4
:10375600700854019A00080073087204710470041A
:103766000319B62BB72BB92B8030F3060800760861
:10377600F1007508F0007708F8007808F2000030CC
:103786009E316A269B310800CE2B9B314C239B3100
:103796009E31C1269B314201BC18D22BD32BC82B9C
:1037A60008004301901AD82BD92BE02B8F01083043
:1037B6009000910103308D00901608007608F10004
:1037C6007508F0007708F8007808F20002309E319C
:1037D6006A269B310800F3004201BC1DF32BF42B33
:1037E600FD2B7308F2007208B7007108B900700863
:1037F600B800BC1108000230F0000030F100790872
:103806009B31EE239B310030F500F600F7019B312A
:10381600BA239B31043008000130F0000030F1007B
:1038260079089B31EE239C310030F500F600F70154
:103836009B31BA239C31043008000130F00000307F
:10384600F10079089B31EE239C310030F500F6003B
:10385600F7019B31BA239C31023008000230F00098
:103866000030F10079089B31EE239C310030F500E1
:10387600F600F7019B31BA239C3102300800023072
:10388600F0000030F10079089B31EE239C310030C6
:10389600F500F600F7019B31BA239C31043008008D
:1038A6000130F0000030F10079089B31EE239C31A5
:1038B6000030F500F600F7019B31BA239C31023047
:1038C60008000230F0000030F10079089B31EE2349
:1038D6009C310030F500F600F7019B31BA239C318C
:1038E600023008000130F0000030F10079089B3109
:1038F600EE239C310030F500F600F7019B31BA2328
:103906009C3104300800EA304001EF006F084201A4
:10391600D000410169084001E80041016808400102
:10392600E7005030EF006F08E90000309F311E2796
:103936009C310800790886008701403FF000413F2E
:10394600F1007908023E8600870101089B31EE23CB
:103956009C310030F500F600F7019B31BA239C310B
:1039660002300800790886008701403FF000413F99
:10397600F1007908023E8600870101089B31EE239B
:103986009C310030F500F600F7019B31BA239C31DB
:10399600023008007008D03EF200FF30713DF3009F
:1039A600003073020A3003197202031CDB2CDD2C73
:1039B6000130DE2C0030F400F5017408F0007508C3
:1039C600F10008007008BF3EF200FF30713DF300C1
:1039D600003073021A3003197202031CF32CF52C03
:1039E6000130F62C0030F400F5017408F00075087B
:1039F600F1000800F4007408F2007208F300072DC5
:103A06000130F2007208F40774088600013087005E
:103A16000108031D0F2D102D032D73087402F000ED
:103A2600F101F01BF1030800F101F10A4201BC1893
:103A36001D2D1E2D312D3C11FF30F0007008B600F3
:103A46009A31EF229D319A31F5229D319A31F22237
:103A56009D3142013B08F0007008F1007108080032
:103A6600F401F501701C382D392D3D2D7208F4072F
:103A76007308F53D0130F235F30D890B3E2D01300B
:103A8600F136F00C890B432D70087104031D4C2D83
:103A96004D2D352D7508F1007408F00008008030B2
:103AA6004001D1065508BD005408BC005308BB00B0
:103AB6005208BA005108C1005008C0004F08BF00A4
:103AC6004E08BE0088318F209D3140013D08D1004F
:103AD6003C08D0003B08CF003A08CE000800F401AD
:103AE600F40A20307006710403197A2D7B2D8B2D74
:103AF6007008F73EF200FF30713DF30000307302AC
:103B0600053003197202031C892D8A2D8B2DF401B1
:103B16007408F200F3017208F0007308F10008005F
:103B2600F7007108F5007008F4007708F2007208D3
:103B3600F6007608860001308700F60A7508F3005D
:103B46007408F200F40A0319F50A7208840073086F
:103B560085000008C03F8908031DB22DB32D9C2D9A
:103B66000800083054019F0090309D0024309E00CC
:103B760019309B009C010030F0000030F1009B31B1
:103B860058239D310030F0000030F1009B315E2358
:103B96009D310030F0000030F1009B3152239D3101
:103BA6004201CD010800F800F401F5017008F200A9
:103BB600F3017208F6007308F700781CE32DE42D74
:103BC600E82D7608F4077708F53D0130F635F70D50
:103BD600890BE92D0310F80C7808031DF32DF42D3D
:103BE600E02D7508F1007408F00008004001A300FC
:103BF600A401A40A4201BC18012E022E192EBC14DF
:103C06004001A40123080319092E0A2E0E2E420193
:103C1600BA01BA0A132E0230FD007D084201BA002D
:103C26009A31F8229D319B31C7239D3140012408EA
:103C360008007608BF3EF800FF30773DF9000030F7
:103C460079021A3003197802031C2A2E2C2E013011
:103C56002D2E0030FA00FB017A08FC007B08FD00DF
:103C66007C087D040319382E392E402E2030760428
:103C7600F60000307704F700402E08004001A3004C
:103C8600A101A201592E2008FB00FC017B08F200CD
:103C96007C08F3007A08FD007D08F4009F31C127F7
:103CA6009E3101304001A1070030A23D21082307C3
:103CB600FB007B088600013087000108FC007C08B9
:103CC600A0002008031D682E692E462E0800F40069
:103CD600700871040319702E712E842E7435203EDF
:103CE6008600013087007008C03F7108C13F720826
:103CF600F30074082C3E86000130870073088100AB
:103D0600932E7435203E860001308700EB30C03F8D
:103D16001A30C13F74082C3E8600013087008101AD
:103D2600080042013C100230FA007A08BB00A32EBC
:103D36009B3123239E31C02E9B3128239E31C02EDA
:103D46002E08FA007A08F9000430203E8600013079
:103D56008700413F8A00403F0A009E31FB00FC017C
:103D66007C08003A0319B82E9F2E7B08023A0319E5
:103D76009B2E013A03199B2E9F2E08009A31EF22A3
:103D86009E3142013C1CC82EC92ED72E9B3146239C
:103D96009E31003A0319D02ED12ED72E0F30400176
:103DA600A00020084201BA0042013A084001A000E2
:103DB600A101A035A10D003020078400A030213DCF
:103DC6008500013F8A00003F0A009E314001A200A3
:103DD60022084201BA0008004201BC15FF2E9B31A1
:103DE60023239E311D2F803104209E3103301D2F49
:103DF6009B3128239E311D2F2C08FA007A08F900E2
:103E060021088A0020080A009F31FB00FC017C087B
:103E1600003A03190F2FFB2E7B08013A0319FB2EDC
:103E2600033A0319F22E013A0319F22E073A03193F
:103E3600F62EFB2E08004001EC006808EE0067082D
:103E4600ED004201C501C6013C2F6D30EA006A084B
:103E5600DF006908EB006B08E0006C088D311E2559
:103E66009F3140015F084201C507400160084201D9
:103E7600C63D40016D0884006E0885001200031DD2
:103E8600452F462F282F420146084001E8004201EF
:103E960045084001E700080040019C01980199018E
:103EA6009A0108309600FF309200FF309300EF3001
:103EB6009400DF307E01CE00F930C300FF30B80039
:103EC600E501C401B901CF01E601BA01C501D0017E
:103ED600FF30BB00FF30C600FF30D1003F30BC00D2
:103EE6003F30C7003F30D20009307D01C500133096
:103EF6007E01990014309A002530A40015307D010A
:103F0600CD000A30C6000800F100F201F20A4201B3
:103F16003C198E2F8F2FBF2F7108F0007008B60046
:103F2600BC103C153C100E30F0007008BA00F4309E
:103F3600B4000130B500BC15EB30A0001A30A1006A
:103F4600AC01EB30A2001A30A300AD01EB30A400A7
:103F56001A30A500AE01EB30A6001A30A700AF015B
:103F6600ED30A8001A30A900B0019A31EF229F3136
:103F76009B31D4239F31F20172080800740803199B
:103F8600C52FC62FCB2F7408031DCA2FCB2FD02FBA
:103F960072089B3164239F31FF2F7408033E86000D
:103FA6008701160001040319D92FDA2FF72F740899
:103FB600033E86008701403FF500413FF600740A44
:103FC60086008701403FF700413FF8007808803AB5
:103FD600F9007608803A7902031DF32F75087702F7
:103FE6000318F62FF72FFF2F740A8600870101307A
:103FF600810741310318810A080014341B347F34C9
:104006001B3477341B34223411343B34103470346F
:104016001B34EF341E3419341B341E341B34233442
:104026001B3428341B342D341B3432341B343734C0
:104036001B343C341B3494341E3457346134693495
:10404600743469346E346734203466346F347234B1
:10405600203464346134743461342E342E342E3476
:104066000A34003456344F3443343A342034253439
:1040760032342E3432346634203470347034623440
:104086000A34003443344F3432343A34203425343D
:1040960032342E34323466342034703470346D3415
:1040A6000A34003449344E34463400344E344134F4
:1040B6004E34003469346E34663400346E34613400
:0A40C6006E3400346C3466340034AC
:020000040001F9
:0A000E00EC3FFF3F9F3FFF3FFF3F25
:00000001FF
